:10000000E2C0FCC0FBC0FAC0F9C0F8C0F7C0F6C03F
:10001000F5C0F4C0F3C0F2C0F1C0F0C0EFC0EEC054
:10002000EDC0ECC0EBC0EAC0E9C05BC1E7C0E6C010
:1000300004C3E4C006C40DC40CC40BC40AC409C480
:1000400008C407C416C305C404C403C402C401C45D
:1000500000C4FFC30EC3FDC3FCC3FBC3FAC3F9C393
:10006000F8C3F7C311C3F5C3F4C3F3C3F2C3F1C3B9
:10007000F0C3EFC335C3EDC3ECC3EBC3EAC3E9C3BD
:10008000E8C3E7C301C3E5C3E4C3E3C3E2C3E1C319
:10009000E0C3DFC325C3DDC3DCC3DBC3DAC3D9C31D
:1000A000D8C3D7C326C3D5C3D4C3D3C3D2C3D1C344
:1000B000D0C3CFC333C3CDC3CCC3CBC3CAC3C9C35F
:1000C000C8C3C7C30DC3C5C3C4C3C3C3C2C3C1C3AD
:1000D000C0C3BFC317C3BDC3BCC3BBC3BAC3B9C3CB
:1000E000B8C3B7C3F1C2B5C3B4C3B3C3B2C3B1C31A
:1000F000B0C3AFC32BC3ADC3ACC3ABC3AAC3A9C307
:10010000A8C3A7C323C3A5C3A4C3A3C3A2C3A1C336
:10011000A0C39FC31BC39DC39CC39BC39AC399C366
:1001200098C397C313C395C394C393C392C391C396
:1001300090C38FC317C38DC38CC38BC38AC389C3BA
:1001400088C387C32BC385C384C383C382C381C3CE
:1001500080C37FC307C37DC37CC37BC37AC379C31A
:1001600078C377C31BC375C374C373C372C371C32E
:1001700070C36FC31AC36DC36CC36BC36AC369C357
:1001800068C367C326C365C364C363C362C361C373
:1001900060C35FC31EC35DC35CC35BC35AC359C3A3
:1001A00058C357C327C355C354C353C352C351C3C2
:1001B00050C34FC33DC34DC34CC34BC34AC349C3D4
:1001C00048C347C335C311241FBECFEFD4E0DEBF01
:1001D000CDBF11E0A0E0B1E0E6EAF8E002C0059092
:1001E0000D92A230B107D9F711E0A2E0B1E001C051
:1001F0001D92A631B107E1F79AD053C301CFEAE7C8
:10020000F0E08081877F808380818F77808308956D
:10021000EAE7F0E09081987F892B80830895ECE7EE
:10022000F0E090818295880F880F807C9F73982BD7
:1002300090830895CF93DF93CAE7D0E088818068E8
:10024000888388818F7D888386E0E2DF81E0E7DF35
:10025000ECE7F0E080818F7D8083888188608883EF
:1002600010920F017894DF91CF910895ECE7F0E0C0
:1002700090818F71907E982B90830895EAE7F0E04B
:1002800080818061808380818064808308958091F3
:100290007A008074089510920F01ECE7F0E09081ED
:1002A0008F71907E982B9083EAE7F0E080818061E7
:1002B0008083808180648083808186FDFDCF209152
:1002C000780030917900932F80E030E0282B392B93
:1002D000822F932F0895DFDF9695879596958795C2
:1002E00008951F920F920FB60F9211248F938FEFE4
:1002F00080930F018F910F900FBE0F901F90189554
:10030000289AFB018081803329F480911001809329
:1003100014010895813321F4809112018093140116
:10032000089580911401FB01808381E00895209A53
:1003300038D08CE460E053D080E891E059D081E976
:1003400091E05BD077DF81E06ADF8FE19EE4019787
:10035000F1F700C0000080E09EDF909311018093D0
:10036000100181E098DF9093130180931201EDCF8B
:10037000BC01E9EBF0E080818E7F808380818D7FFE
:10038000808380E49FE179D2603140F070E0605179
:10039000704012F46F5F7F4F759567956093B8005A
:1003A0000895409A419A589A599A10920C011092C5
:1003B0000B0110920E0110920D0184E690E0D8DF3F
:1003C000ECEBF0E0808184608083109202018081F8
:1003D000816080838081806480837894089591E037
:1003E000662309F490E08E7F982B9093BA000895CD
:1003F00090930C0180930B01089590930E018093CC
:100400000D010895ECEBF0E080818F70806A8083AD
:100410000895ECEBF0E080818F70806D808308950B
:10042000ECEBF0E080818823ECF708958093BB002B
:10043000ECEBF0E080818F708068808308958823E2
:1004400039F0ECEBF0E080818F70806C8083089550
:10045000ECEBF0E080818F7080688083089580915C
:10046000BB0008958091B9000895909102019923ED
:10047000E1F792E0909302018E7F8093030166235F
:1004800079F0A42FB52FE6E0F1E0CF010196262FF9
:100490002150820F911D2D912193E817F907D9F76B
:1004A0001092040160930501ECEBF0E080818F7005
:1004B000806A80830895DA01909102019923E1F71F
:1004C00093E09093020181608093030110920701F1
:1004D00060930A01ECEBF0E080818F70806A80838A
:1004E000809102018823E1F7662361F0E8E0F1E002
:1004F000CF0101966150860F911D21912D93E81730
:10050000F907D9F70895CF93DF93DA01ECEBF0E028
:1005100090819E7F908390819F70906A908390815C
:100520009923ECF78E7F8093BB00ECEBF0E08081A9
:100530008F708068808380818823ECF78091B90078
:10054000883199F4662399F0CBEBD0E0ECEBF0E046
:100550008D91888380818F708068808380818823DB
:10056000ECF76150A9F780E003C081E001C080E0B2
:10057000ECEBF0E090819F70906D9083908194FF00
:10058000FDCFECEBF0E0908191609083DF91CF9113
:100590000895CF93DF93ECEBF0E090819E7F908302
:1005A00090819F70906A908390819923ECF781608D
:1005B0008093BB00ECEBF0E080818F7080688083DB
:1005C00080818823ECF78091B900803449F562304E
:1005D000C0F0DA01962FECEBF0E0CBEBD0E08081BD
:1005E0008F70806C808380818823ECF788818D9365
:1005F00091509230A0F76250862F90E00196480FFC
:10060000591FECEBF0E080818F70806880838081DF
:100610008823ECF78091BB00FA01808380E001C061
:1006200081E0ECEBF0E090819F70906D9083908181
:1006300091609083DF91CF9108951F920F920FB632
:100640000F9211242F933F934F935F936F937F9358
:100650008F939F93AF93BF93EF93FF93E091B90074
:10066000E87FF0E0E93CF10508F0F3C0E65EFF4FFB
:100670000994809103018093BB00ECEBF0E0808152
:100680008F7080688083E5C080910401909105019E
:10069000891788F4E82FF0E0EA5FFE4F90818F5FC2
:1006A000809304019093BB00ECEBF0E080818F70AD
:1006B00080688083CEC0ECEBF0E080818F70806D2D
:1006C000808310920201C5C0809107019091BB0008
:1006D000E82FF0E0E85FFE4F90838F5F8093070183
:1006E000ECEBF0E080818F70806D808310920201CE
:1006F000B0C0ECEBF0E080818F7080688083109256
:100700000201A7C0809107019091BB00E82FF0E0A3
:10071000E85FFE4F90838F5F809307012091070170
:1007200030E080910A0190E00197281739073CF4E6
:10073000ECEBF0E080818F70806C80838AC0ECEB02
:10074000F0E080818F708068808383C085E0809333
:10075000020110920701ECEBF0E080818F70806C59
:10076000808377C0809107019091BB00E82FF0E073
:10077000E85FFE4F90838F5F80930701823038F4EB
:10078000ECEBF0E080818F70806C808362C0ECEBDA
:10079000F0E080818F70806880835BC0ECEBF0E0DC
:1007A00080818F708068808354C0ECEBF0E08081A2
:1007B0008F70806C8083E0910B01F0910C01309779
:1007C00029F08091070168E071E00995109202011B
:1007D00040C084E080930201E0910D01F0910E0190
:1007E000309731F081E066E071E009958093050172
:1007F0001092040180910401E82FF0E0EA5FFE4FBF
:1008000090819093BB008F5F8093040190910501CC
:10081000891738F4ECEBF0E080818F70806C808376
:1008200018C0ECEBF0E080818F708068808311C08D
:10083000ECEBF0E080818F70806C8083109202017D
:1008400008C0ECEBF0E080818F70806D80831092A7
:100850000201FF91EF91BF91AF919F918F917F9195
:100860006F915F914F913F912F910F900FBE0F901D
:100870001F901895809102010895AA1BBB1B51E19E
:1008800007C0AA1FBB1FA617B70710F0A61BB70B00
:10089000881F991F5A95A9F780959095BC01CD01A5
:0608A0000895F894FFCF5B
:0208A60002004E
:00000001FF
