:10000000E2C0FCC0FBC0FAC0F9C0F8C0F7C0F6C03F
:10001000F5C0F4C0F3C0F2C0F1C0F0C0EFC0EEC054
:10002000EDC0ECC0EBC0EAC0E9C05BC1E7C0E6C010
:1000300022C3E4C023C42AC429C428C427C426C4B4
:1000400025C424C434C322C421C420C41FC41EC474
:100050001DC41CC42CC31AC419C418C417C416C4A4
:1000600015C414C42FC312C411C410C40FC40EC4C9
:100070000DC40CC453C30AC409C408C407C406C4CD
:1000800005C404C41FC302C401C400C4FFC3FEC32B
:10009000FDC3FCC343C3FAC3F9C3F8C3F7C3F6C334
:1000A000F5C3F4C344C3F2C3F1C3F0C3EFC3EEC35B
:1000B000EDC3ECC351C3EAC3E9C3E8C3E7C3E6C376
:1000C000E5C3E4C32BC3E2C3E1C3E0C3DFC3DEC3C4
:1000D000DDC3DCC335C3DAC3D9C3D8C3D7C3D6C3E2
:1000E000D5C3D4C30FC3D2C3D1C3D0C3CFC3CEC330
:1000F000CDC3CCC349C3CAC3C9C3C8C3C7C3C6C31E
:10010000C5C3C4C341C3C2C3C1C3C0C3BFC3BEC34D
:10011000BDC3BCC339C3BAC3B9C3B8C3B7C3B6C37D
:10012000B5C3B4C331C3B2C3B1C3B0C3AFC3AEC3AD
:10013000ADC3ACC335C3AAC3A9C3A8C3A7C3A6C3D1
:10014000A5C3A4C349C3A2C3A1C3A0C39FC39EC3E5
:100150009DC39CC325C39AC399C398C397C396C331
:1001600095C394C339C392C391C390C38FC38EC345
:100170008DC38CC338C38AC389C388C387C386C36E
:1001800085C384C344C382C381C380C37FC37EC38A
:100190007DC37CC33CC37AC379C378C377C376C3BA
:1001A00075C374C344C372C371C370C36FC36EC3DA
:1001B0006DC36CC35AC36AC369C368C367C366C3EC
:1001C00065C364C352C311241FBECFEFD4E0DEBFAA
:1001D000CDBF11E0A0E0B1E0E0EFF8E002C0059093
:1001E0000D92A230B107D9F711E0A2E0B1E001C051
:1001F0001D92A432B107E1F78BD078C301CFEAE7B3
:10020000F0E08081877F808380818F77808308956D
:10021000EAE7F0E09081987F892B80830895ECE7EE
:10022000F0E090818295880F880F807C9F73982BD7
:1002300090830895CF93DF93CAE7D0E088818068E8
:10024000888388818F7D888386E0E2DF81E0E7DF35
:10025000ECE7F0E080818F7D8083888188608883EF
:10026000109218017894DF91CF910895ECE7F0E0B7
:1002700090818F71907E982B90830895EAE7F0E04B
:1002800080818061808380818064808308958091F3
:100290007A008074089510921801ECE7F0E09081E4
:1002A0008F71907E982B9083EAE7F0E080818061E7
:1002B0008083808180648083808186FDFDCF209152
:1002C000780030917900932F80E030E0282B392B93
:1002D000822F932F0895DFDF9695879596958795C2
:1002E00008951F920F920FB60F9211248F938FEFE4
:1002F000809318018F910F900FBE0F901F9018954B
:100300000895289A80912101FB01808381E008955E
:100310000F931F93CF93DF93209A80E090E0DED27B
:100320008093020181E090E0D9D28093030182E0C2
:1003300090E0D4D28093040183E090E0CFD2809308
:100340000501813009F4209A4AD08091020160E0D1
:1003500064D080E891E06AD081E891E06CD06ADFF7
:10036000809104015CDF10E0C9E1D1E000E001C050
:10037000102F80910301813059F4812F8CDFE12F00
:10038000F0E0EE0FFF1FEC0FFD1F918380830AC08A
:10039000812FA1DFE12FF0E0EE0FFF1FEC0FFD1F1B
:1003A000808311821F5F143018F7E3CFBC01E9EBA3
:1003B000F0E080818E7F808380818D7F808380E4E8
:1003C0009FE178D2603140F070E06051704012F4EB
:1003D0006F5F7F4F759567956093B8000895409A59
:1003E000419A589A599A109215011092140110923C
:1003F00017011092160184E690E0D8DFECEBF0E0F4
:100400008081846080831092060180818160808376
:100410008081806480837894089591E0662309F454
:1004200090E08E7F982B9093BA00089590931501D9
:1004300080931401089590931701809316010895F5
:10044000ECEBF0E080818F70806A80830895ECEBA4
:10045000F0E080818F70806D80830895ECEBF0E098
:1004600080818823ECF708958093BB00ECEBF0E0EB
:1004700080818F70806880830895882339F0ECEB49
:10048000F0E080818F70806C80830895ECEBF0E069
:1004900080818F708068808308958091BB0008956B
:1004A0008091B9000895909106019923E1F792E0B7
:1004B000909306018E7F80930701662379F0A42F25
:1004C000B52FEAE0F1E0CF010196262F2150820FEF
:1004D000911D2D912193E817F907D9F71092080182
:1004E00060930901ECEBF0E080818F70806A80837B
:1004F0000895DA01909106019923E1F793E0909332
:10050000060181608093070110920E016093130130
:10051000ECEBF0E080818F70806A8083809106012F
:100520008823E1F7662361F0EFE0F1E0CF01019667
:100530006150860F911D21912D93E817F907D9F786
:100540000895CF93DF93DA01ECEBF0E090819E7F8A
:10055000908390819F70906A908390819923ECF7AB
:100560008E7F8093BB00ECEBF0E080818F70806821
:10057000808380818823ECF78091B900883199F4D9
:10058000662399F0CBEBD0E0ECEBF0E08D91888323
:1005900080818F708068808380818823ECF7615030
:1005A000A9F780E003C081E001C080E0ECEBF0E05F
:1005B00090819F70906D9083908194FFFDCFECEBC4
:1005C000F0E0908191609083DF91CF910895CF9377
:1005D000DF93ECEBF0E090819E7F908390819F70A1
:1005E000906A908390819923ECF781608093BB009F
:1005F000ECEBF0E080818F708068808380818823BD
:10060000ECF78091B900803449F56230C0F0DA012E
:10061000962FECEBF0E0CBEBD0E080818F70806C1C
:10062000808380818823ECF788818D93915092306C
:10063000A0F76250862F90E00196480F591FECEB0F
:10064000F0E080818F708068808380818823ECF760
:100650008091BB00FA01808380E001C081E0ECEB77
:10066000F0E090819F70906D908390819160908375
:10067000DF91CF9108951F920F920FB60F92112420
:100680002F933F934F935F936F937F938F939F939A
:10069000AF93BF93EF93FF93E091B900E87FF0E051
:1006A000E93CF10508F0F2C0E65EFF4F0994809145
:1006B00007018093BB00ECEBF0E080818F708068D5
:1006C0008083E4C08091080190910901891788F422
:1006D000E82FF0E0E65FFE4F90818F5F8093080186
:1006E0009093BB00ECEBF0E080818F70806880839A
:1006F000CDC0ECEBF0E080818F70806D8083109234
:100700000601C4C080910E019091BB00E82FF0E07B
:10071000E15FFE4F90838F5F80930E01ECEBF0E082
:1007200080818F70806D808310920601AFC0ECEBEA
:10073000F0E080818F708068808310920601A6C0EF
:1007400080910E019091BB00E82FF0E0E15FFE4F39
:1007500090838F5F80930E0120910E0130E0809195
:10076000130190E00197281739073CF4ECEBF0E017
:1007700080818F70806C808389C0ECEBF0E0808199
:100780008F708068808382C085E08093060110921C
:100790000E01ECEBF0E080818F70806C808376C07E
:1007A00080910E019091BB00E82FF0E0E15FFE4FD9
:1007B00090838F5F80930E01843038F4ECEBF0E08F
:1007C00080818F70806C808361C0ECEBF0E0808171
:1007D0008F70806880835AC0ECEBF0E080818F706E
:1007E0008068808353C0ECEBF0E080818F70806C78
:1007F0008083E0911401F0911501309729F08091E8
:100800000E016FE071E00995109206013FC084E08F
:1008100080930601E0911601F0911701309729F0BD
:100820006AE071E0099580930901109208018091B6
:100830000801E82FF0E0E65FFE4F90819093BB0047
:100840008F5F8093080190910901891738F4ECEBD0
:10085000F0E080818F70806C808318C0ECEBF0E05A
:1008600080818F708068808311C0ECEBF0E0808124
:100870008F70806C80831092060108C0ECEBF0E072
:1008800080818F70806D808310920601FF91EF91BF
:10089000BF91AF919F918F917F916F915F914F9198
:1008A0003F912F910F900FBE0F901F901895809140
:1008B00006010895AA1BBB1B51E107C0AA1FBB1F5D
:1008C000A617B70710F0A61BB70B881F991F5A95DC
:1008D000A9F780959095BC01CD010895F999FECFB7
:1008E00092BD81BDF89A992780B50895F894FFCFFD
:0208F000030003
:00000001FF
